{
    "_format": "hh-sol-artifact-1",
    "contractName": "Lottery",
    "sourceName": "contracts/Lottery.sol",
    "abi": [
        {
            "inputs": [],
            "stateMutability": "nonpayable",
            "type": "constructor"
        },
        {
            "inputs": [],
            "name": "Start",
            "outputs": [],
            "stateMutability": "payable",
            "type": "function"
        },
        {
            "inputs": [],
            "name": "admin",
            "outputs": [
                {
                    "internalType": "address",
                    "name": "",
                    "type": "address"
                }
            ],
            "stateMutability": "view",
            "type": "function"
        },
        {
            "inputs": [],
            "name": "getAdmin",
            "outputs": [
                {
                    "internalType": "address",
                    "name": "",
                    "type": "address"
                }
            ],
            "stateMutability": "view",
            "type": "function"
        },
        {
            "inputs": [],
            "name": "getPrize",
            "outputs": [],
            "stateMutability": "nonpayable",
            "type": "function"
        },
        {
            "inputs": [],
            "name": "getWinner",
            "outputs": [
                {
                    "internalType": "address",
                    "name": "",
                    "type": "address"
                }
            ],
            "stateMutability": "view",
            "type": "function"
        },
        {
            "inputs": [],
            "name": "isClaimed",
            "outputs": [
                {
                    "internalType": "bool",
                    "name": "",
                    "type": "bool"
                }
            ],
            "stateMutability": "view",
            "type": "function"
        },
        {
            "inputs": [],
            "name": "isComplete",
            "outputs": [
                {
                    "internalType": "bool",
                    "name": "",
                    "type": "bool"
                }
            ],
            "stateMutability": "view",
            "type": "function"
        },
        {
            "inputs": [],
            "name": "isCompleted",
            "outputs": [
                {
                    "internalType": "bool",
                    "name": "",
                    "type": "bool"
                }
            ],
            "stateMutability": "view",
            "type": "function"
        },
        {
            "inputs": [],
            "name": "pickWinner",
            "outputs": [],
            "stateMutability": "nonpayable",
            "type": "function"
        },
        {
            "inputs": [],
            "name": "players",
            "outputs": [
                {
                    "internalType": "address payable[]",
                    "name": "",
                    "type": "address[]"
                }
            ],
            "stateMutability": "view",
            "type": "function"
        },
        {
            "inputs": [
                {
                    "internalType": "uint256",
                    "name": "",
                    "type": "uint256"
                }
            ],
            "name": "playersInvolved",
            "outputs": [
                {
                    "internalType": "address payable",
                    "name": "",
                    "type": "address"
                }
            ],
            "stateMutability": "view",
            "type": "function"
        }
    ],
    "bytecode": "0x608060405234801561001057600080fd5b50336000806101000a81548173ffffffffffffffffffffffffffffffffffffffff021916908373ffffffffffffffffffffffffffffffffffffffff1602179055506000600260146101000a81548160ff0219169083151502179055506000600260156101000a81548160ff0219169083151502179055506109f9806100966000396000f3fe60806040526004361061009c5760003560e01c80638e7ea5b2116100645780638e7ea5b214610155578063b2fa1c9e14610180578063c34f6b0d146101ab578063dc0b3564146101c2578063f851a440146101ed578063fa391c64146102185761009c565b80630dc3856d146100a15780631b55ba3a146100de57806357c9ca14146100e85780635d495aea146101135780636e9960c31461012a575b600080fd5b3480156100ad57600080fd5b506100c860048036038101906100c391906106fb565b610243565b6040516100d59190610769565b60405180910390f35b6100e6610282565b005b3480156100f457600080fd5b506100fd610315565b60405161010a919061079f565b60405180910390f35b34801561011f57600080fd5b50610128610328565b005b34801561013657600080fd5b5061013f61045e565b60405161014c91906107db565b60405180910390f35b34801561016157600080fd5b5061016a610487565b60405161017791906107db565b60405180910390f35b34801561018c57600080fd5b506101956104b1565b6040516101a2919061079f565b60405180910390f35b3480156101b757600080fd5b506101c06104c8565b005b3480156101ce57600080fd5b506101d76105c1565b6040516101e491906108b4565b60405180910390f35b3480156101f957600080fd5b5061020261064f565b60405161020f91906107db565b60405180910390f35b34801561022457600080fd5b5061022d610673565b60405161023a919061079f565b60405180910390f35b6001818154811061025357600080fd5b906000526020600020016000915054906101000a900473ffffffffffffffffffffffffffffffffffffffff1681565b66038d7ea4c6800034101561029657600080fd5b600260159054906101000a900460ff16156102b057600080fd5b6001339080600181540180825580915050600190039060005260206000200160009091909190916101000a81548173ffffffffffffffffffffffffffffffffffffffff021916908373ffffffffffffffffffffffffffffffffffffffff160217905550565b600260149054906101000a900460ff1681565b60008054906101000a900473ffffffffffffffffffffffffffffffffffffffff1673ffffffffffffffffffffffffffffffffffffffff163373ffffffffffffffffffffffffffffffffffffffff161461038057600080fd5b60006001805490501161039257600080fd5b600260159054906101000a900460ff16156103ac57600080fd5b600180805490506103bb610686565b6103c59190610905565b815481106103d6576103d5610936565b5b9060005260206000200160009054906101000a900473ffffffffffffffffffffffffffffffffffffffff16600260006101000a81548173ffffffffffffffffffffffffffffffffffffffff021916908373ffffffffffffffffffffffffffffffffffffffff1602179055506001600260156101000a81548160ff021916908315150217905550565b60008060009054906101000a900473ffffffffffffffffffffffffffffffffffffffff16905090565b6000600260009054906101000a900473ffffffffffffffffffffffffffffffffffffffff16905090565b6000600260159054906101000a900460ff16905090565b600260009054906101000a900473ffffffffffffffffffffffffffffffffffffffff1673ffffffffffffffffffffffffffffffffffffffff163373ffffffffffffffffffffffffffffffffffffffff161461052257600080fd5b600260159054906101000a900460ff1661053b57600080fd5b600260009054906101000a900473ffffffffffffffffffffffffffffffffffffffff1673ffffffffffffffffffffffffffffffffffffffff166108fc479081150290604051600060405180830381858888f193505050501580156105a3573d6000803e3d6000fd5b506001600260146101000a81548160ff021916908315150217905550565b6060600180548060200260200160405190810160405280929190818152602001828054801561064557602002820191906000526020600020905b8160009054906101000a900473ffffffffffffffffffffffffffffffffffffffff1673ffffffffffffffffffffffffffffffffffffffff16815260200190600101908083116105fb575b5050505050905090565b60008054906101000a900473ffffffffffffffffffffffffffffffffffffffff1681565b600260159054906101000a900460ff1681565b600044426001805490506040516020016106a293929190610986565b6040516020818303038152906040528051906020012060001c905090565b600080fd5b6000819050919050565b6106d8816106c5565b81146106e357600080fd5b50565b6000813590506106f5816106cf565b92915050565b600060208284031215610711576107106106c0565b5b600061071f848285016106e6565b91505092915050565b600073ffffffffffffffffffffffffffffffffffffffff82169050919050565b600061075382610728565b9050919050565b61076381610748565b82525050565b600060208201905061077e600083018461075a565b92915050565b60008115159050919050565b61079981610784565b82525050565b60006020820190506107b46000830184610790565b92915050565b60006107c582610728565b9050919050565b6107d5816107ba565b82525050565b60006020820190506107f060008301846107cc565b92915050565b600081519050919050565b600082825260208201905092915050565b6000819050602082019050919050565b61082b81610748565b82525050565b600061083d8383610822565b60208301905092915050565b6000602082019050919050565b6000610861826107f6565b61086b8185610801565b935061087683610812565b8060005b838110156108a757815161088e8882610831565b975061089983610849565b92505060018101905061087a565b5085935050505092915050565b600060208201905081810360008301526108ce8184610856565b905092915050565b7f4e487b7100000000000000000000000000000000000000000000000000000000600052601260045260246000fd5b6000610910826106c5565b915061091b836106c5565b92508261092b5761092a6108d6565b5b828206905092915050565b7f4e487b7100000000000000000000000000000000000000000000000000000000600052603260045260246000fd5b6000819050919050565b61098061097b826106c5565b610965565b82525050565b6000610992828661096f565b6020820191506109a2828561096f565b6020820191506109b2828461096f565b60208201915081905094935050505056fea26469706673582212206d0a3bef385b6172122b2dbcaafc5bb36a6d9406cec01633c2ec68d0a216417e64736f6c63430008130033",
    "linkReferences": {},
    "deployedLinkReferences": {}
}